{
  "_format": "hh-sol-artifact-1",
  "contractName": "MineGuardRegistry",
  "sourceName": "contracts/MineGuardRegistry.sol",
  "abi": [
    {
      "inputs": [],
      "stateMutability": "nonpayable",
      "type": "constructor"
    },
    {
      "anonymous": false,
      "inputs": [
        {
          "indexed": true,
          "internalType": "address",
          "name": "funder",
          "type": "address"
        },
        {
          "indexed": false,
          "internalType": "uint256",
          "name": "amount",
          "type": "uint256"
        }
      ],
      "name": "ContractFunded",
      "type": "event"
    },
    {
      "anonymous": false,
      "inputs": [
        {
          "indexed": true,
          "internalType": "uint256",
          "name": "reportId",
          "type": "uint256"
        },
        {
          "indexed": false,
          "internalType": "enum MineGuardRegistry.ReportStatus",
          "name": "status",
          "type": "uint8"
        },
        {
          "indexed": false,
          "internalType": "uint256",
          "name": "rewardAmount",
          "type": "uint256"
        }
      ],
      "name": "ReportReviewed",
      "type": "event"
    },
    {
      "anonymous": false,
      "inputs": [
        {
          "indexed": true,
          "internalType": "uint256",
          "name": "reportId",
          "type": "uint256"
        },
        {
          "indexed": true,
          "internalType": "address",
          "name": "reporter",
          "type": "address"
        },
        {
          "indexed": false,
          "internalType": "string",
          "name": "ipfsHash",
          "type": "string"
        },
        {
          "indexed": false,
          "internalType": "enum MineGuardRegistry.ReportSeverity",
          "name": "severity",
          "type": "uint8"
        }
      ],
      "name": "ReportSubmitted",
      "type": "event"
    },
    {
      "anonymous": false,
      "inputs": [
        {
          "indexed": true,
          "internalType": "uint256",
          "name": "reportId",
          "type": "uint256"
        },
        {
          "indexed": true,
          "internalType": "address",
          "name": "reporter",
          "type": "address"
        },
        {
          "indexed": false,
          "internalType": "uint256",
          "name": "amount",
          "type": "uint256"
        }
      ],
      "name": "RewardClaimed",
      "type": "event"
    },
    {
      "inputs": [],
      "name": "admin",
      "outputs": [
        {
          "internalType": "address",
          "name": "",
          "type": "address"
        }
      ],
      "stateMutability": "view",
      "type": "function"
    },
    {
      "inputs": [
        {
          "internalType": "uint256",
          "name": "reportId",
          "type": "uint256"
        }
      ],
      "name": "claimReward",
      "outputs": [],
      "stateMutability": "nonpayable",
      "type": "function"
    },
    {
      "inputs": [],
      "name": "contractBalance",
      "outputs": [
        {
          "internalType": "uint256",
          "name": "",
          "type": "uint256"
        }
      ],
      "stateMutability": "view",
      "type": "function"
    },
    {
      "inputs": [],
      "name": "fundContract",
      "outputs": [],
      "stateMutability": "payable",
      "type": "function"
    },
    {
      "inputs": [],
      "name": "getContractBalance",
      "outputs": [
        {
          "internalType": "uint256",
          "name": "",
          "type": "uint256"
        }
      ],
      "stateMutability": "view",
      "type": "function"
    },
    {
      "inputs": [
        {
          "internalType": "uint256",
          "name": "reportId",
          "type": "uint256"
        }
      ],
      "name": "getReport",
      "outputs": [
        {
          "components": [
            {
              "internalType": "string",
              "name": "ipfsHash",
              "type": "string"
            },
            {
              "internalType": "uint256",
              "name": "timestamp",
              "type": "uint256"
            },
            {
              "internalType": "address",
              "name": "reporter",
              "type": "address"
            },
            {
              "internalType": "enum MineGuardRegistry.ReportStatus",
              "name": "status",
              "type": "uint8"
            },
            {
              "internalType": "enum MineGuardRegistry.ReportSeverity",
              "name": "severity",
              "type": "uint8"
            },
            {
              "internalType": "uint256",
              "name": "rewardAmount",
              "type": "uint256"
            },
            {
              "internalType": "bool",
              "name": "rewardClaimed",
              "type": "bool"
            }
          ],
          "internalType": "struct MineGuardRegistry.Report",
          "name": "",
          "type": "tuple"
        }
      ],
      "stateMutability": "view",
      "type": "function"
    },
    {
      "inputs": [
        {
          "internalType": "address",
          "name": "reporter",
          "type": "address"
        }
      ],
      "name": "getReporterBalance",
      "outputs": [
        {
          "internalType": "uint256",
          "name": "",
          "type": "uint256"
        }
      ],
      "stateMutability": "view",
      "type": "function"
    },
    {
      "inputs": [
        {
          "internalType": "address",
          "name": "reporter",
          "type": "address"
        }
      ],
      "name": "getReporterReports",
      "outputs": [
        {
          "internalType": "uint256[]",
          "name": "",
          "type": "uint256[]"
        }
      ],
      "stateMutability": "view",
      "type": "function"
    },
    {
      "inputs": [],
      "name": "reportCount",
      "outputs": [
        {
          "internalType": "uint256",
          "name": "",
          "type": "uint256"
        }
      ],
      "stateMutability": "view",
      "type": "function"
    },
    {
      "inputs": [
        {
          "internalType": "address",
          "name": "",
          "type": "address"
        },
        {
          "internalType": "uint256",
          "name": "",
          "type": "uint256"
        }
      ],
      "name": "reporterReports",
      "outputs": [
        {
          "internalType": "uint256",
          "name": "",
          "type": "uint256"
        }
      ],
      "stateMutability": "view",
      "type": "function"
    },
    {
      "inputs": [
        {
          "internalType": "address",
          "name": "",
          "type": "address"
        }
      ],
      "name": "reporterRewardBalance",
      "outputs": [
        {
          "internalType": "uint256",
          "name": "",
          "type": "uint256"
        }
      ],
      "stateMutability": "view",
      "type": "function"
    },
    {
      "inputs": [
        {
          "internalType": "uint256",
          "name": "",
          "type": "uint256"
        }
      ],
      "name": "reports",
      "outputs": [
        {
          "internalType": "string",
          "name": "ipfsHash",
          "type": "string"
        },
        {
          "internalType": "uint256",
          "name": "timestamp",
          "type": "uint256"
        },
        {
          "internalType": "address",
          "name": "reporter",
          "type": "address"
        },
        {
          "internalType": "enum MineGuardRegistry.ReportStatus",
          "name": "status",
          "type": "uint8"
        },
        {
          "internalType": "enum MineGuardRegistry.ReportSeverity",
          "name": "severity",
          "type": "uint8"
        },
        {
          "internalType": "uint256",
          "name": "rewardAmount",
          "type": "uint256"
        },
        {
          "internalType": "bool",
          "name": "rewardClaimed",
          "type": "bool"
        }
      ],
      "stateMutability": "view",
      "type": "function"
    },
    {
      "inputs": [
        {
          "internalType": "uint256",
          "name": "reportId",
          "type": "uint256"
        },
        {
          "internalType": "bool",
          "name": "approved",
          "type": "bool"
        }
      ],
      "name": "reviewReport",
      "outputs": [],
      "stateMutability": "nonpayable",
      "type": "function"
    },
    {
      "inputs": [
        {
          "internalType": "string",
          "name": "ipfsHash",
          "type": "string"
        },
        {
          "internalType": "uint8",
          "name": "severity",
          "type": "uint8"
        }
      ],
      "name": "submitReport",
      "outputs": [
        {
          "internalType": "uint256",
          "name": "",
          "type": "uint256"
        }
      ],
      "stateMutability": "nonpayable",
      "type": "function"
    },
    {
      "inputs": [
        {
          "internalType": "uint256",
          "name": "amount",
          "type": "uint256"
        }
      ],
      "name": "withdraw",
      "outputs": [],
      "stateMutability": "nonpayable",
      "type": "function"
    },
    {
      "stateMutability": "payable",
      "type": "receive"
    }
  ],
  "bytecode": "0x608060405234801561001057600080fd5b50336000806101000a81548173ffffffffffffffffffffffffffffffffffffffff021916908373ffffffffffffffffffffffffffffffffffffffff160217905550600060018190555060006002819055506129b9806100706000396000f3fe6080604052600436106100eb5760003560e01c80636f9fb98a1161008a578063bd097e2111610059578063bd097e211461039f578063c942adf7146103a9578063ec63a5dd146103ec578063f851a4401461041557610159565b80636f9fb98a146102e357806384c861b51461030e5780638b7afe2e1461034b578063ae169a501461037657610159565b80632e1a7d4d116100c65780632e1a7d4d14610203578063438c4bf31461022c5780634e7f9b19146102695780636b280861146102a657610159565b806296c1a51461015e5780631556ad851461019b578063185c6f84146101d857610159565b36610159573460026000828254610102919061263a565b925050819055503373ffffffffffffffffffffffffffffffffffffffff167f0939f6f4877faf071412e527bc4c6d0bd65ad077e52b57334f7765265647a7f13460405161014f919061254d565b60405180910390a2005b600080fd5b34801561016a57600080fd5b5061018560048036038101906101809190611b1d565b610440565b604051610192919061254d565b60405180910390f35b3480156101a757600080fd5b506101c260048036038101906101bd9190611af4565b610471565b6040516101cf9190612251565b60405180910390f35b3480156101e457600080fd5b506101ed610508565b6040516101fa919061254d565b60405180910390f35b34801561020f57600080fd5b5061022a60048036038101906102259190611bad565b61050e565b005b34801561023857600080fd5b50610253600480360381019061024e9190611af4565b61068f565b604051610260919061254d565b60405180910390f35b34801561027557600080fd5b50610290600480360381019061028b9190611bad565b6106a7565b60405161029d919061252b565b60405180910390f35b3480156102b257600080fd5b506102cd60048036038101906102c89190611af4565b61093f565b6040516102da919061254d565b60405180910390f35b3480156102ef57600080fd5b506102f8610988565b604051610305919061254d565b60405180910390f35b34801561031a57600080fd5b5061033560048036038101906103309190611b59565b610992565b604051610342919061254d565b60405180910390f35b34801561035757600080fd5b50610360610d8c565b60405161036d919061254d565b60405180910390f35b34801561038257600080fd5b5061039d60048036038101906103989190611bad565b610d92565b005b6103a76111c3565b005b3480156103b557600080fd5b506103d060048036038101906103cb9190611bad565b61126f565b6040516103e397969594939291906122f5565b60405180910390f35b3480156103f857600080fd5b50610413600480360381019061040e9190611bd6565b611380565b005b34801561042157600080fd5b5061042a6116ff565b6040516104379190612236565b60405180910390f35b6004602052816000526040600020818154811061045c57600080fd5b90600052602060002001600091509150505481565b6060600460008373ffffffffffffffffffffffffffffffffffffffff1673ffffffffffffffffffffffffffffffffffffffff1681526020019081526020016000208054806020026020016040519081016040528092919081815260200182805480156104fc57602002820191906000526020600020905b8154815260200190600101908083116104e8575b50505050509050919050565b60015481565b60008054906101000a900473ffffffffffffffffffffffffffffffffffffffff1673ffffffffffffffffffffffffffffffffffffffff163373ffffffffffffffffffffffffffffffffffffffff161461059c576040517f08c379a00000000000000000000000000000000000000000000000000000000081526004016105939061248b565b60405180910390fd5b478111156105df576040517f08c379a00000000000000000000000000000000000000000000000000000000081526004016105d69061238b565b60405180910390fd5b60003373ffffffffffffffffffffffffffffffffffffffff168260405161060590612221565b60006040518083038185875af1925050503d8060008114610642576040519150601f19603f3d011682016040523d82523d6000602084013e610647565b606091505b505090508061068b576040517f08c379a0000000000000000000000000000000000000000000000000000000008152600401610682906124cb565b60405180910390fd5b5050565b60056020528060005260406000206000915090505481565b6106af6118d0565b8160015481106106f4576040517f08c379a00000000000000000000000000000000000000000000000000000000081526004016106eb906123eb565b60405180910390fd5b600360008481526020019081526020016000206040518060e0016040529081600082018054610722906127b7565b80601f016020809104026020016040519081016040528092919081815260200182805461074e906127b7565b801561079b5780601f106107705761010080835404028352916020019161079b565b820191906000526020600020905b81548152906001019060200180831161077e57829003601f168201915b50505050508152602001600182015481526020016002820160009054906101000a900473ffffffffffffffffffffffffffffffffffffffff1673ffffffffffffffffffffffffffffffffffffffff1673ffffffffffffffffffffffffffffffffffffffff1681526020016002820160149054906101000a900460ff16600381111561084f577f4e487b7100000000000000000000000000000000000000000000000000000000600052602160045260246000fd5b6003811115610887577f4e487b7100000000000000000000000000000000000000000000000000000000600052602160045260246000fd5b81526020016002820160159054906101000a900460ff1660038111156108d6577f4e487b7100000000000000000000000000000000000000000000000000000000600052602160045260246000fd5b600381111561090e577f4e487b7100000000000000000000000000000000000000000000000000000000600052602160045260246000fd5b8152602001600382015481526020016004820160009054906101000a900460ff161515151581525050915050919050565b6000600560008373ffffffffffffffffffffffffffffffffffffffff1673ffffffffffffffffffffffffffffffffffffffff168152602001908152602001600020549050919050565b6000600254905090565b6000808351116109d7576040517f08c379a00000000000000000000000000000000000000000000000000000000081526004016109ce9061240b565b60405180910390fd5b60038260ff161115610a1e576040517f08c379a0000000000000000000000000000000000000000000000000000000008152600401610a159061242b565b60405180910390fd5b600060015490506040518060e001604052808581526020014281526020013373ffffffffffffffffffffffffffffffffffffffff16815260200160006003811115610a92577f4e487b7100000000000000000000000000000000000000000000000000000000600052602160045260246000fd5b81526020018460ff166003811115610ad3577f4e487b7100000000000000000000000000000000000000000000000000000000600052602160045260246000fd5b6003811115610b0b577f4e487b7100000000000000000000000000000000000000000000000000000000600052602160045260246000fd5b81526020016000815260200160001515815250600360008381526020019081526020016000206000820151816000019080519060200190610b4d929190611995565b506020820151816001015560408201518160020160006101000a81548173ffffffffffffffffffffffffffffffffffffffff021916908373ffffffffffffffffffffffffffffffffffffffff16021790555060608201518160020160146101000a81548160ff02191690836003811115610bf0577f4e487b7100000000000000000000000000000000000000000000000000000000600052602160045260246000fd5b021790555060808201518160020160156101000a81548160ff02191690836003811115610c46577f4e487b7100000000000000000000000000000000000000000000000000000000600052602160045260246000fd5b021790555060a0820151816003015560c08201518160040160006101000a81548160ff021916908315150217905550905050600460003373ffffffffffffffffffffffffffffffffffffffff1673ffffffffffffffffffffffffffffffffffffffff16815260200190815260200160002081908060018154018082558091505060019003906000526020600020016000909190919091505560016000815480929190610cf1906127e9565b91905055503373ffffffffffffffffffffffffffffffffffffffff16817f708075d618318ee06a9042556a51ac64652a037beb963e7693d02e109549a282868660ff166003811115610d6c577f4e487b7100000000000000000000000000000000000000000000000000000000600052602160045260246000fd5b604051610d7a9291906122c5565b60405180910390a38091505092915050565b60025481565b806001548110610dd7576040517f08c379a0000000000000000000000000000000000000000000000000000000008152600401610dce906123eb565b60405180910390fd5b60006003600084815260200190815260200160002090503373ffffffffffffffffffffffffffffffffffffffff168160020160009054906101000a900473ffffffffffffffffffffffffffffffffffffffff1673ffffffffffffffffffffffffffffffffffffffff1614610e80576040517f08c379a0000000000000000000000000000000000000000000000000000000008152600401610e779061236b565b60405180910390fd5b60026003811115610eba577f4e487b7100000000000000000000000000000000000000000000000000000000600052602160045260246000fd5b8160020160149054906101000a900460ff166003811115610f04577f4e487b7100000000000000000000000000000000000000000000000000000000600052602160045260246000fd5b14610f44576040517f08c379a0000000000000000000000000000000000000000000000000000000008152600401610f3b9061244b565b60405180910390fd5b8060040160009054906101000a900460ff1615610f96576040517f08c379a0000000000000000000000000000000000000000000000000000000008152600401610f8d906123ab565b60405180910390fd5b6000816003015411610fdd576040517f08c379a0000000000000000000000000000000000000000000000000000000008152600401610fd4906124ab565b60405180910390fd5b80600301546002541015611026576040517f08c379a000000000000000000000000000000000000000000000000000000000815260040161101d906124eb565b60405180910390fd5b60018160040160006101000a81548160ff0219169083151502179055508060030154600260008282546110599190612690565b925050819055508060030154600560003373ffffffffffffffffffffffffffffffffffffffff1673ffffffffffffffffffffffffffffffffffffffff16815260200190815260200160002060008282546110b39190612690565b9250508190555060003373ffffffffffffffffffffffffffffffffffffffff1682600301546040516110e490612221565b60006040518083038185875af1925050503d8060008114611121576040519150601f19603f3d011682016040523d82523d6000602084013e611126565b606091505b505090508061116a576040517f08c379a00000000000000000000000000000000000000000000000000000000081526004016111619061246b565b60405180910390fd5b3373ffffffffffffffffffffffffffffffffffffffff16847f24b5efa61dd1cfc659205a97fb8ed868f3cb8c81922bab2b96423e5de1de2cb784600301546040516111b5919061254d565b60405180910390a350505050565b60003411611206576040517f08c379a00000000000000000000000000000000000000000000000000000000081526004016111fd9061250b565b60405180910390fd5b3460026000828254611218919061263a565b925050819055503373ffffffffffffffffffffffffffffffffffffffff167f0939f6f4877faf071412e527bc4c6d0bd65ad077e52b57334f7765265647a7f134604051611265919061254d565b60405180910390a2565b6003602052806000526040600020600091509050806000018054611292906127b7565b80601f01602080910402602001604051908101604052809291908181526020018280546112be906127b7565b801561130b5780601f106112e05761010080835404028352916020019161130b565b820191906000526020600020905b8154815290600101906020018083116112ee57829003601f168201915b5050505050908060010154908060020160009054906101000a900473ffffffffffffffffffffffffffffffffffffffff16908060020160149054906101000a900460ff16908060020160159054906101000a900460ff16908060030154908060040160009054906101000a900460ff16905087565b60008054906101000a900473ffffffffffffffffffffffffffffffffffffffff1673ffffffffffffffffffffffffffffffffffffffff163373ffffffffffffffffffffffffffffffffffffffff161461140e576040517f08c379a00000000000000000000000000000000000000000000000000000000081526004016114059061248b565b60405180910390fd5b816001548110611453576040517f08c379a000000000000000000000000000000000000000000000000000000000815260040161144a906123eb565b60405180910390fd5b6000600360008581526020019081526020016000209050600060038111156114a4577f4e487b7100000000000000000000000000000000000000000000000000000000600052602160045260246000fd5b8160020160149054906101000a900460ff1660038111156114ee577f4e487b7100000000000000000000000000000000000000000000000000000000600052602160045260246000fd5b1461152e576040517f08c379a0000000000000000000000000000000000000000000000000000000008152600401611525906123cb565b60405180910390fd5b82156116695760028160020160146101000a81548160ff02191690836003811115611582577f4e487b7100000000000000000000000000000000000000000000000000000000600052602160045260246000fd5b021790555060006115a38260020160159054906101000a900460ff16611723565b905080826003018190555080600560008460020160009054906101000a900473ffffffffffffffffffffffffffffffffffffffff1673ffffffffffffffffffffffffffffffffffffffff1673ffffffffffffffffffffffffffffffffffffffff1681526020019081526020016000206000828254611621919061263a565b92505081905550847f89f203211e827bf1287dcd8d3bafeaebd9b3a1045f47c780b6ff2d1cf587356a60028360405161165b92919061229c565b60405180910390a2506116f9565b60038160020160146101000a81548160ff021916908360038111156116b7577f4e487b7100000000000000000000000000000000000000000000000000000000600052602160045260246000fd5b0217905550837f89f203211e827bf1287dcd8d3bafeaebd9b3a1045f47c780b6ff2d1cf587356a600360006040516116f0929190612273565b60405180910390a25b50505050565b60008054906101000a900473ffffffffffffffffffffffffffffffffffffffff1681565b600060038081111561175e577f4e487b7100000000000000000000000000000000000000000000000000000000600052602160045260246000fd5b826003811115611797577f4e487b7100000000000000000000000000000000000000000000000000000000600052602160045260246000fd5b14156117ad57678ac7230489e8000090506118cb565b600260038111156117e7577f4e487b7100000000000000000000000000000000000000000000000000000000600052602160045260246000fd5b826003811115611820577f4e487b7100000000000000000000000000000000000000000000000000000000600052602160045260246000fd5b141561183657674563918244f4000090506118cb565b60016003811115611870577f4e487b7100000000000000000000000000000000000000000000000000000000600052602160045260246000fd5b8260038111156118a9577f4e487b7100000000000000000000000000000000000000000000000000000000600052602160045260246000fd5b14156118bf57671bc16d674ec8000090506118cb565b670de0b6b3a764000090505b919050565b6040518060e001604052806060815260200160008152602001600073ffffffffffffffffffffffffffffffffffffffff16815260200160006003811115611940577f4e487b7100000000000000000000000000000000000000000000000000000000600052602160045260246000fd5b81526020016000600381111561197f577f4e487b7100000000000000000000000000000000000000000000000000000000600052602160045260246000fd5b8152602001600081526020016000151581525090565b8280546119a1906127b7565b90600052602060002090601f0160209004810192826119c35760008555611a0a565b82601f106119dc57805160ff1916838001178555611a0a565b82800160010185558215611a0a579182015b82811115611a095782518255916020019190600101906119ee565b5b509050611a179190611a1b565b5090565b5b80821115611a34576000816000905550600101611a1c565b5090565b6000611a4b611a4684612599565b612568565b905082815260208101848484011115611a6357600080fd5b611a6e848285612775565b509392505050565b600081359050611a8581612927565b92915050565b600081359050611a9a8161293e565b92915050565b600082601f830112611ab157600080fd5b8135611ac1848260208601611a38565b91505092915050565b600081359050611ad981612955565b92915050565b600081359050611aee8161296c565b92915050565b600060208284031215611b0657600080fd5b6000611b1484828501611a76565b91505092915050565b60008060408385031215611b3057600080fd5b6000611b3e85828601611a76565b9250506020611b4f85828601611aca565b9150509250929050565b60008060408385031215611b6c57600080fd5b600083013567ffffffffffffffff811115611b8657600080fd5b611b9285828601611aa0565b9250506020611ba385828601611adf565b9150509250929050565b600060208284031215611bbf57600080fd5b6000611bcd84828501611aca565b91505092915050565b60008060408385031215611be957600080fd5b6000611bf785828601611aca565b9250506020611c0885828601611a8b565b9150509250929050565b6000611c1e8383612203565b60208301905092915050565b611c33816126c4565b82525050565b611c42816126c4565b82525050565b6000611c53826125d9565b611c5d81856125fc565b9350611c68836125c9565b8060005b83811015611c99578151611c808882611c12565b9750611c8b836125ef565b925050600181019050611c6c565b5085935050505092915050565b611caf816126d6565b82525050565b611cbe816126d6565b82525050565b611ccd8161273f565b82525050565b611cdc8161273f565b82525050565b611ceb81612751565b82525050565b611cfa81612751565b82525050565b611d0981612763565b82525050565b6000611d1a826125e4565b611d248185612618565b9350611d34818560208601612784565b611d3d816128ee565b840191505092915050565b6000611d53826125e4565b611d5d8185612629565b9350611d6d818560208601612784565b611d76816128ee565b840191505092915050565b6000611d8e601e83612629565b91507f4f6e6c79207265706f727465722063616e20636c61696d2072657761726400006000830152602082019050919050565b6000611dce601483612629565b91507f496e73756666696369656e742062616c616e63650000000000000000000000006000830152602082019050919050565b6000611e0e601683612629565b91507f52657761726420616c726561647920636c61696d6564000000000000000000006000830152602082019050919050565b6000611e4e601783612629565b91507f5265706f727420616c72656164792072657669657765640000000000000000006000830152602082019050919050565b6000611e8e601583612629565b91507f5265706f727420646f6573206e6f7420657869737400000000000000000000006000830152602082019050919050565b6000611ece601983612629565b91507f4950465320686173682063616e6e6f7420626520656d707479000000000000006000830152602082019050919050565b6000611f0e601683612629565b91507f496e76616c6964207365766572697479206c6576656c000000000000000000006000830152602082019050919050565b6000611f4e601383612629565b91507f5265706f7274206e6f7420617070726f766564000000000000000000000000006000830152602082019050919050565b6000611f8e60008361260d565b9150600082019050919050565b6000611fa8601683612629565b91507f526577617264207472616e73666572206661696c6564000000000000000000006000830152602082019050919050565b6000611fe8602183612629565b91507f4f6e6c792061646d696e2063616e2063616c6c20746869732066756e6374696f60008301527f6e000000000000000000000000000000000000000000000000000000000000006020830152604082019050919050565b600061204e601283612629565b91507f4e6f2072657761726420746f20636c61696d00000000000000000000000000006000830152602082019050919050565b600061208e601183612629565b91507f5769746864726177616c206661696c65640000000000000000000000000000006000830152602082019050919050565b60006120ce601d83612629565b91507f496e73756666696369656e7420636f6e74726163742062616c616e63650000006000830152602082019050919050565b600061210e602283612629565b91507f46756e6420616d6f756e74206d7573742062652067726561746572207468616e60008301527f20300000000000000000000000000000000000000000000000000000000000006020830152604082019050919050565b600060e08301600083015184820360008601526121848282611d0f565b91505060208301516121996020860182612203565b5060408301516121ac6040860182611c2a565b5060608301516121bf6060860182611ce2565b5060808301516121d26080860182611cc4565b5060a08301516121e560a0860182612203565b5060c08301516121f860c0860182611ca6565b508091505092915050565b61220c81612728565b82525050565b61221b81612728565b82525050565b600061222c82611f81565b9150819050919050565b600060208201905061224b6000830184611c39565b92915050565b6000602082019050818103600083015261226b8184611c48565b905092915050565b60006040820190506122886000830185611cf1565b6122956020830184611d00565b9392505050565b60006040820190506122b16000830185611cf1565b6122be6020830184612212565b9392505050565b600060408201905081810360008301526122df8185611d48565b90506122ee6020830184611cd3565b9392505050565b600060e082019050818103600083015261230f818a611d48565b905061231e6020830189612212565b61232b6040830188611c39565b6123386060830187611cf1565b6123456080830186611cd3565b61235260a0830185612212565b61235f60c0830184611cb5565b98975050505050505050565b6000602082019050818103600083015261238481611d81565b9050919050565b600060208201905081810360008301526123a481611dc1565b9050919050565b600060208201905081810360008301526123c481611e01565b9050919050565b600060208201905081810360008301526123e481611e41565b9050919050565b6000602082019050818103600083015261240481611e81565b9050919050565b6000602082019050818103600083015261242481611ec1565b9050919050565b6000602082019050818103600083015261244481611f01565b9050919050565b6000602082019050818103600083015261246481611f41565b9050919050565b6000602082019050818103600083015261248481611f9b565b9050919050565b600060208201905081810360008301526124a481611fdb565b9050919050565b600060208201905081810360008301526124c481612041565b9050919050565b600060208201905081810360008301526124e481612081565b9050919050565b60006020820190508181036000830152612504816120c1565b9050919050565b6000602082019050818103600083015261252481612101565b9050919050565b600060208201905081810360008301526125458184612167565b905092915050565b60006020820190506125626000830184612212565b92915050565b6000604051905081810181811067ffffffffffffffff8211171561258f5761258e6128bf565b5b8060405250919050565b600067ffffffffffffffff8211156125b4576125b36128bf565b5b601f19601f8301169050602081019050919050565b6000819050602082019050919050565b600081519050919050565b600081519050919050565b6000602082019050919050565b600082825260208201905092915050565b600081905092915050565b600082825260208201905092915050565b600082825260208201905092915050565b600061264582612728565b915061265083612728565b9250827fffffffffffffffffffffffffffffffffffffffffffffffffffffffffffffffff0382111561268557612684612832565b5b828201905092915050565b600061269b82612728565b91506126a683612728565b9250828210156126b9576126b8612832565b5b828203905092915050565b60006126cf82612708565b9050919050565b60008115159050919050565b60008190506126f0826128ff565b919050565b600081905061270382612913565b919050565b600073ffffffffffffffffffffffffffffffffffffffff82169050919050565b6000819050919050565b600060ff82169050919050565b600061274a826126e2565b9050919050565b600061275c826126f5565b9050919050565b600061276e82612728565b9050919050565b82818337600083830152505050565b60005b838110156127a2578082015181840152602081019050612787565b838111156127b1576000848401525b50505050565b600060028204905060018216806127cf57607f821691505b602082108114156127e3576127e2612890565b5b50919050565b60006127f482612728565b91507fffffffffffffffffffffffffffffffffffffffffffffffffffffffffffffffff82141561282757612826612832565b5b600182019050919050565b7f4e487b7100000000000000000000000000000000000000000000000000000000600052601160045260246000fd5b7f4e487b7100000000000000000000000000000000000000000000000000000000600052602160045260246000fd5b7f4e487b7100000000000000000000000000000000000000000000000000000000600052602260045260246000fd5b7f4e487b7100000000000000000000000000000000000000000000000000000000600052604160045260246000fd5b6000601f19601f8301169050919050565b600481106129105761290f612861565b5b50565b6004811061292457612923612861565b5b50565b612930816126c4565b811461293b57600080fd5b50565b612947816126d6565b811461295257600080fd5b50565b61295e81612728565b811461296957600080fd5b50565b61297581612732565b811461298057600080fd5b5056fea2646970667358221220df0775c2eaf250b3cb146893e1ee05f9c8e8bc3c8bf323a6be62c9d4f995f85064736f6c63430008000033",
  "linkReferences": {},
  "deployedLinkReferences": {}
}